{
  "_format": "hh3-artifact-1",
  "contractName": "CoffeeCatalog",
  "sourceName": "contracts/CoffeeCatalog.sol",
  "abi": [
    {
      "inputs": [
        {
          "internalType": "address",
          "name": "initialOwner",
          "type": "address"
        }
      ],
      "stateMutability": "nonpayable",
      "type": "constructor"
    },
    {
      "inputs": [
        {
          "internalType": "address",
          "name": "owner",
          "type": "address"
        }
      ],
      "name": "OwnableInvalidOwner",
      "type": "error"
    },
    {
      "inputs": [
        {
          "internalType": "address",
          "name": "account",
          "type": "address"
        }
      ],
      "name": "OwnableUnauthorizedAccount",
      "type": "error"
    },
    {
      "anonymous": false,
      "inputs": [
        {
          "indexed": true,
          "internalType": "bytes32",
          "name": "code",
          "type": "bytes32"
        },
        {
          "indexed": false,
          "internalType": "string",
          "name": "name",
          "type": "string"
        },
        {
          "indexed": false,
          "internalType": "uint256",
          "name": "priceWei",
          "type": "uint256"
        },
        {
          "indexed": false,
          "internalType": "string",
          "name": "imageCID",
          "type": "string"
        }
      ],
      "name": "CoffeeAdded",
      "type": "event"
    },
    {
      "anonymous": false,
      "inputs": [
        {
          "indexed": true,
          "internalType": "address",
          "name": "buyer",
          "type": "address"
        },
        {
          "indexed": true,
          "internalType": "bytes32",
          "name": "code",
          "type": "bytes32"
        },
        {
          "indexed": false,
          "internalType": "uint256",
          "name": "priceWei",
          "type": "uint256"
        }
      ],
      "name": "CoffeePurchased",
      "type": "event"
    },
    {
      "anonymous": false,
      "inputs": [
        {
          "indexed": true,
          "internalType": "address",
          "name": "previousOwner",
          "type": "address"
        },
        {
          "indexed": true,
          "internalType": "address",
          "name": "newOwner",
          "type": "address"
        }
      ],
      "name": "OwnershipTransferred",
      "type": "event"
    },
    {
      "inputs": [
        {
          "internalType": "string",
          "name": "name",
          "type": "string"
        },
        {
          "internalType": "uint256",
          "name": "priceWei",
          "type": "uint256"
        },
        {
          "internalType": "string",
          "name": "imageCID",
          "type": "string"
        }
      ],
      "name": "addCoffee",
      "outputs": [],
      "stateMutability": "nonpayable",
      "type": "function"
    },
    {
      "inputs": [
        {
          "internalType": "bytes32",
          "name": "",
          "type": "bytes32"
        }
      ],
      "name": "averageRating",
      "outputs": [
        {
          "internalType": "uint256",
          "name": "",
          "type": "uint256"
        }
      ],
      "stateMutability": "view",
      "type": "function"
    },
    {
      "inputs": [
        {
          "internalType": "bytes32",
          "name": "code",
          "type": "bytes32"
        }
      ],
      "name": "buyCoffee",
      "outputs": [],
      "stateMutability": "payable",
      "type": "function"
    },
    {
      "inputs": [
        {
          "internalType": "uint256",
          "name": "",
          "type": "uint256"
        }
      ],
      "name": "coffeeCodes",
      "outputs": [
        {
          "internalType": "bytes32",
          "name": "",
          "type": "bytes32"
        }
      ],
      "stateMutability": "view",
      "type": "function"
    },
    {
      "inputs": [
        {
          "internalType": "bytes32",
          "name": "",
          "type": "bytes32"
        }
      ],
      "name": "coffees",
      "outputs": [
        {
          "internalType": "string",
          "name": "name",
          "type": "string"
        },
        {
          "internalType": "uint256",
          "name": "priceWei",
          "type": "uint256"
        },
        {
          "internalType": "string",
          "name": "imageCID",
          "type": "string"
        },
        {
          "internalType": "bool",
          "name": "exists",
          "type": "bool"
        }
      ],
      "stateMutability": "view",
      "type": "function"
    },
    {
      "inputs": [],
      "name": "getAllCoffees",
      "outputs": [
        {
          "internalType": "bytes32[]",
          "name": "",
          "type": "bytes32[]"
        },
        {
          "components": [
            {
              "internalType": "string",
              "name": "name",
              "type": "string"
            },
            {
              "internalType": "uint256",
              "name": "priceWei",
              "type": "uint256"
            },
            {
              "internalType": "string",
              "name": "imageCID",
              "type": "string"
            },
            {
              "internalType": "bool",
              "name": "exists",
              "type": "bool"
            }
          ],
          "internalType": "struct CoffeeCatalog.Coffee[]",
          "name": "",
          "type": "tuple[]"
        }
      ],
      "stateMutability": "view",
      "type": "function"
    },
    {
      "inputs": [
        {
          "internalType": "bytes32",
          "name": "code",
          "type": "bytes32"
        }
      ],
      "name": "getCoffee",
      "outputs": [
        {
          "internalType": "string",
          "name": "",
          "type": "string"
        },
        {
          "internalType": "uint256",
          "name": "",
          "type": "uint256"
        },
        {
          "internalType": "string",
          "name": "",
          "type": "string"
        }
      ],
      "stateMutability": "view",
      "type": "function"
    },
    {
      "inputs": [],
      "name": "owner",
      "outputs": [
        {
          "internalType": "address",
          "name": "",
          "type": "address"
        }
      ],
      "stateMutability": "view",
      "type": "function"
    },
    {
      "inputs": [
        {
          "internalType": "bytes32",
          "name": "",
          "type": "bytes32"
        }
      ],
      "name": "ratingCount",
      "outputs": [
        {
          "internalType": "uint256",
          "name": "",
          "type": "uint256"
        }
      ],
      "stateMutability": "view",
      "type": "function"
    },
    {
      "inputs": [],
      "name": "renounceOwnership",
      "outputs": [],
      "stateMutability": "nonpayable",
      "type": "function"
    },
    {
      "inputs": [
        {
          "internalType": "address",
          "name": "newOwner",
          "type": "address"
        }
      ],
      "name": "transferOwnership",
      "outputs": [],
      "stateMutability": "nonpayable",
      "type": "function"
    },
    {
      "inputs": [
        {
          "internalType": "bytes32",
          "name": "code",
          "type": "bytes32"
        },
        {
          "internalType": "uint8",
          "name": "newRating",
          "type": "uint8"
        }
      ],
      "name": "updateRating",
      "outputs": [],
      "stateMutability": "nonpayable",
      "type": "function"
    }
  ],
  "bytecode": "0x608060405234801561000f575f80fd5b506040516113b43803806113b483398101604081905261002e916100bb565b806001600160a01b03811661005c57604051631e4fbdf760e01b81525f600482015260240160405180910390fd5b6100658161006c565b50506100e8565b5f80546001600160a01b038381166001600160a01b0319831681178455604051919092169283917f8be0079c531659141344cd1fd0a4f28419497f9722a3daafe3b4186f6b6457e09190a35050565b5f602082840312156100cb575f80fd5b81516001600160a01b03811681146100e1575f80fd5b9392505050565b6112bf806100f55f395ff3fe6080604052600436106100a5575f3560e01c8063715018a611610062578063715018a6146101b3578063776f46d8146101c75780638da5cb5b146101da578063c200026814610200578063f2fde38b14610222578063fcfc063114610241575f80fd5b8063027d7afd146100a9578063155a19f0146100ca57806316b7a58c146101015780631a6f421f1461012e5780631bbc37bb146101595780631cca640214610184575b5f80fd5b3480156100b4575f80fd5b506100c86100c3366004610e34565b610260565b005b3480156100d5575f80fd5b506100e96100e4366004610e9c565b6103ba565b6040516100f893929190610f00565b60405180910390f35b34801561010c575f80fd5b5061012061011b366004610e9c565b610576565b6040519081526020016100f8565b348015610139575f80fd5b50610120610148366004610e9c565b60026020525f908152604090205481565b348015610164575f80fd5b50610120610173366004610e9c565b60036020525f908152604090205481565b34801561018f575f80fd5b506101a361019e366004610e9c565b610595565b6040516100f89493929190610f34565b3480156101be575f80fd5b506100c86106cb565b6100c86101d5366004610e9c565b6106de565b3480156101e5575f80fd5b505f546040516001600160a01b0390911681526020016100f8565b34801561020b575f80fd5b50610214610982565b6040516100f8929190610f72565b34801561022d575f80fd5b506100c861023c366004611044565b610c0f565b34801561024c575f80fd5b506100c861025b36600461106a565b610c4c565b610268610caa565b5f61027284610cd6565b5f8181526001602052604090206003015490915060ff16156102cb5760405162461bcd60e51b815260206004820152600d60248201526c436f666665652065786973747360981b60448201526064015b60405180910390fd5b6040805160808101825285815260208082018690528183018590526001606083018190525f858152915291909120815181906103079082611123565b5060208201516001820155604082015160028201906103269082611123565b50606091909101516003909101805460ff1916911515919091179055600480546001810182555f919091527f8a35acfbc15ff81a39ae7d344fd709f28e8600b4aa8c65c6b64bfe7fe36bd19b0181905560405181907f3bf1d8d1a25913037bcd378195990cc33f29d2af43a9d9b430bd97a58046fb56906103ac90879087908790610f00565b60405180910390a250505050565b60605f60605f60015f8681526020019081526020015f206040518060800160405290815f820180546103eb9061109d565b80601f01602080910402602001604051908101604052809291908181526020018280546104179061109d565b80156104625780601f1061043957610100808354040283529160200191610462565b820191905f5260205f20905b81548152906001019060200180831161044557829003601f168201915b50505050508152602001600182015481526020016002820180546104859061109d565b80601f01602080910402602001604051908101604052809291908181526020018280546104b19061109d565b80156104fc5780601f106104d3576101008083540402835291602001916104fc565b820191905f5260205f20905b8154815290600101906020018083116104df57829003601f168201915b50505091835250506003919091015460ff161515602090910152606081015190915061055d5760405162461bcd60e51b815260206004820152601060248201526f10dbd9999959481b9bdd08199bdd5b9960821b60448201526064016102c2565b8051602082015160409092015190969195509350915050565b60048181548110610585575f80fd5b5f91825260209091200154905081565b60016020525f90815260409020805481906105af9061109d565b80601f01602080910402602001604051908101604052809291908181526020018280546105db9061109d565b80156106265780601f106105fd57610100808354040283529160200191610626565b820191905f5260205f20905b81548152906001019060200180831161060957829003601f168201915b5050505050908060010154908060020180546106419061109d565b80601f016020809104026020016040519081016040528092919081815260200182805461066d9061109d565b80156106b85780601f1061068f576101008083540402835291602001916106b8565b820191905f5260205f20905b81548152906001019060200180831161069b57829003601f168201915b5050506003909301549192505060ff1684565b6106d3610caa565b6106dc5f610d05565b565b5f818152600160205260408082208151608081019092528054829082906107049061109d565b80601f01602080910402602001604051908101604052809291908181526020018280546107309061109d565b801561077b5780601f106107525761010080835404028352916020019161077b565b820191905f5260205f20905b81548152906001019060200180831161075e57829003601f168201915b505050505081526020016001820154815260200160028201805461079e9061109d565b80601f01602080910402602001604051908101604052809291908181526020018280546107ca9061109d565b80156108155780601f106107ec57610100808354040283529160200191610815565b820191905f5260205f20905b8154815290600101906020018083116107f857829003601f168201915b50505091835250506003919091015460ff16151560209091015260608101519091506108765760405162461bcd60e51b815260206004820152601060248201526f10dbd9999959481b9bdd08199bdd5b9960821b60448201526064016102c2565b806020015134146108b95760405162461bcd60e51b815260206004820152600d60248201526c092dcc6dee4e4cac6e8408aa89609b1b60448201526064016102c2565b5f80546040516001600160a01b039091169034908381818185875af1925050503d805f8114610903576040519150601f19603f3d011682016040523d82523d5f602084013e610908565b606091505b50509050806109465760405162461bcd60e51b815260206004820152600a6024820152691155120819985a5b195960b21b60448201526064016102c2565b604051348152839033907f9605475b9c3e3b8a8cd4f3c0fd9754325cc65d5a296c6daadfc30da17a0024069060200160405180910390a3505050565b6060805f60048054905067ffffffffffffffff8111156109a4576109a4610d97565b604051908082528060200260200182016040528015610a0057816020015b6109ed6040518060800160405280606081526020015f8152602001606081526020015f151581525090565b8152602001906001900390816109c25790505b5090505f5b600454811015610bb25760015f60048381548110610a2557610a256111df565b905f5260205f20015481526020019081526020015f206040518060800160405290815f82018054610a559061109d565b80601f0160208091040260200160405190810160405280929190818152602001828054610a819061109d565b8015610acc5780601f10610aa357610100808354040283529160200191610acc565b820191905f5260205f20905b815481529060010190602001808311610aaf57829003601f168201915b5050505050815260200160018201548152602001600282018054610aef9061109d565b80601f0160208091040260200160405190810160405280929190818152602001828054610b1b9061109d565b8015610b665780601f10610b3d57610100808354040283529160200191610b66565b820191905f5260205f20905b815481529060010190602001808311610b4957829003601f168201915b50505091835250506003919091015460ff1615156020909101528251839083908110610b9457610b946111df565b60200260200101819052508080610baa90611207565b915050610a05565b5060048181805480602002602001604051908101604052809291908181526020018280548015610bff57602002820191905f5260205f20905b815481526020019060010190808311610beb575b5050505050915092509250509091565b610c17610caa565b6001600160a01b038116610c4057604051631e4fbdf760e01b81525f60048201526024016102c2565b610c4981610d05565b50565b5f8281526002602090815260408083205460039092528220549091610c75838360ff8716610d54565b5f8681526002602052604090208190559050610c9282600161121f565b5f958652600360205260409095209490945550505050565b5f546001600160a01b031633146106dc5760405163118cdaa760e01b81523360048201526024016102c2565b5f81604051602001610ce89190611238565b604051602081830303815290604052805190602001209050919050565b5f80546001600160a01b038381166001600160a01b0319831681178455604051919092169283917f8be0079c531659141344cd1fd0a4f28419497f9722a3daafe3b4186f6b6457e09190a35050565b5f825f03610d63575080610d90565b610d6e83600161121f565b82610d798587611253565b610d83919061121f565b610d8d919061126a565b90505b9392505050565b634e487b7160e01b5f52604160045260245ffd5b5f82601f830112610dba575f80fd5b813567ffffffffffffffff80821115610dd557610dd5610d97565b604051601f8301601f19908116603f01168101908282118183101715610dfd57610dfd610d97565b81604052838152866020858801011115610e15575f80fd5b836020870160208301375f602085830101528094505050505092915050565b5f805f60608486031215610e46575f80fd5b833567ffffffffffffffff80821115610e5d575f80fd5b610e6987838801610dab565b9450602086013593506040860135915080821115610e85575f80fd5b50610e9286828701610dab565b9150509250925092565b5f60208284031215610eac575f80fd5b5035919050565b5f5b83811015610ecd578181015183820152602001610eb5565b50505f910152565b5f8151808452610eec816020860160208601610eb3565b601f01601f19169290920160200192915050565b606081525f610f126060830186610ed5565b8460208401528281036040840152610f2a8185610ed5565b9695505050505050565b608081525f610f466080830187610ed5565b8560208401528281036040840152610f5e8186610ed5565b915050821515606083015295945050505050565b604080825283518282018190525f9190606090818501906020808901865b83811015610fac57815185529382019390820190600101610f90565b50508683038188015287518084528184019250600581901b840182018983015f5b8381101561103357601f19878403018652815160808151818652610ff382870182610ed5565b91505086820151878601528a8201518582038c8701526110138282610ed5565b928b01511515958b01959095525095850195925090840190600101610fcd565b50909b9a5050505050505050505050565b5f60208284031215611054575f80fd5b81356001600160a01b0381168114610d90575f80fd5b5f806040838503121561107b575f80fd5b82359150602083013560ff81168114611092575f80fd5b809150509250929050565b600181811c908216806110b157607f821691505b6020821081036110cf57634e487b7160e01b5f52602260045260245ffd5b50919050565b601f82111561111e575f81815260208120601f850160051c810160208610156110fb5750805b601f850160051c820191505b8181101561111a57828155600101611107565b5050505b505050565b815167ffffffffffffffff81111561113d5761113d610d97565b6111518161114b845461109d565b846110d5565b602080601f831160018114611184575f841561116d5750858301515b5f19600386901b1c1916600185901b17855561111a565b5f85815260208120601f198616915b828110156111b257888601518255948401946001909101908401611193565b50858210156111cf57878501515f19600388901b60f8161c191681555b5050505050600190811b01905550565b634e487b7160e01b5f52603260045260245ffd5b634e487b7160e01b5f52601160045260245ffd5b5f60018201611218576112186111f3565b5060010190565b80820180821115611232576112326111f3565b92915050565b5f8251611249818460208701610eb3565b9190910192915050565b8082028115828204841417611232576112326111f3565b5f8261128457634e487b7160e01b5f52601260045260245ffd5b50049056fea26469706673582212205d643a69d5b1b6e3b567e3d25222850a8c82512a8d92c5b9af035c624714d4da64736f6c63430008140033",
  "linkReferences": {},
  "deployedLinkReferences": {},
  "immutableReferences": {},
  "inputSourceName": "project/contracts/CoffeeCatalog.sol",
  "buildInfoId": "solc-0_8_20-9ea3872be80c6fa020554fa93980fac622220487"
}