{
  "_format": "hh3-artifact-1",
  "contractName": "CoffeeBadge",
  "sourceName": "contracts/CoffeeBadge.sol",
  "abi": [
    {
      "inputs": [
        {
          "internalType": "address",
          "name": "initialOwner",
          "type": "address"
        }
      ],
      "stateMutability": "nonpayable",
      "type": "constructor"
    },
    {
      "inputs": [
        {
          "internalType": "address",
          "name": "sender",
          "type": "address"
        },
        {
          "internalType": "uint256",
          "name": "tokenId",
          "type": "uint256"
        },
        {
          "internalType": "address",
          "name": "owner",
          "type": "address"
        }
      ],
      "name": "ERC721IncorrectOwner",
      "type": "error"
    },
    {
      "inputs": [
        {
          "internalType": "address",
          "name": "operator",
          "type": "address"
        },
        {
          "internalType": "uint256",
          "name": "tokenId",
          "type": "uint256"
        }
      ],
      "name": "ERC721InsufficientApproval",
      "type": "error"
    },
    {
      "inputs": [
        {
          "internalType": "address",
          "name": "approver",
          "type": "address"
        }
      ],
      "name": "ERC721InvalidApprover",
      "type": "error"
    },
    {
      "inputs": [
        {
          "internalType": "address",
          "name": "operator",
          "type": "address"
        }
      ],
      "name": "ERC721InvalidOperator",
      "type": "error"
    },
    {
      "inputs": [
        {
          "internalType": "address",
          "name": "owner",
          "type": "address"
        }
      ],
      "name": "ERC721InvalidOwner",
      "type": "error"
    },
    {
      "inputs": [
        {
          "internalType": "address",
          "name": "receiver",
          "type": "address"
        }
      ],
      "name": "ERC721InvalidReceiver",
      "type": "error"
    },
    {
      "inputs": [
        {
          "internalType": "address",
          "name": "sender",
          "type": "address"
        }
      ],
      "name": "ERC721InvalidSender",
      "type": "error"
    },
    {
      "inputs": [
        {
          "internalType": "uint256",
          "name": "tokenId",
          "type": "uint256"
        }
      ],
      "name": "ERC721NonexistentToken",
      "type": "error"
    },
    {
      "inputs": [
        {
          "internalType": "address",
          "name": "owner",
          "type": "address"
        }
      ],
      "name": "OwnableInvalidOwner",
      "type": "error"
    },
    {
      "inputs": [
        {
          "internalType": "address",
          "name": "account",
          "type": "address"
        }
      ],
      "name": "OwnableUnauthorizedAccount",
      "type": "error"
    },
    {
      "anonymous": false,
      "inputs": [
        {
          "indexed": true,
          "internalType": "address",
          "name": "owner",
          "type": "address"
        },
        {
          "indexed": true,
          "internalType": "address",
          "name": "approved",
          "type": "address"
        },
        {
          "indexed": true,
          "internalType": "uint256",
          "name": "tokenId",
          "type": "uint256"
        }
      ],
      "name": "Approval",
      "type": "event"
    },
    {
      "anonymous": false,
      "inputs": [
        {
          "indexed": true,
          "internalType": "address",
          "name": "owner",
          "type": "address"
        },
        {
          "indexed": true,
          "internalType": "address",
          "name": "operator",
          "type": "address"
        },
        {
          "indexed": false,
          "internalType": "bool",
          "name": "approved",
          "type": "bool"
        }
      ],
      "name": "ApprovalForAll",
      "type": "event"
    },
    {
      "anonymous": false,
      "inputs": [
        {
          "indexed": true,
          "internalType": "address",
          "name": "previousOwner",
          "type": "address"
        },
        {
          "indexed": true,
          "internalType": "address",
          "name": "newOwner",
          "type": "address"
        }
      ],
      "name": "OwnershipTransferred",
      "type": "event"
    },
    {
      "anonymous": false,
      "inputs": [
        {
          "indexed": true,
          "internalType": "address",
          "name": "from",
          "type": "address"
        },
        {
          "indexed": true,
          "internalType": "address",
          "name": "to",
          "type": "address"
        },
        {
          "indexed": true,
          "internalType": "uint256",
          "name": "tokenId",
          "type": "uint256"
        }
      ],
      "name": "Transfer",
      "type": "event"
    },
    {
      "inputs": [],
      "name": "MAX_BADGES",
      "outputs": [
        {
          "internalType": "uint256",
          "name": "",
          "type": "uint256"
        }
      ],
      "stateMutability": "view",
      "type": "function"
    },
    {
      "inputs": [
        {
          "internalType": "address",
          "name": "to",
          "type": "address"
        },
        {
          "internalType": "uint256",
          "name": "tokenId",
          "type": "uint256"
        }
      ],
      "name": "approve",
      "outputs": [],
      "stateMutability": "nonpayable",
      "type": "function"
    },
    {
      "inputs": [
        {
          "internalType": "address",
          "name": "owner",
          "type": "address"
        }
      ],
      "name": "balanceOf",
      "outputs": [
        {
          "internalType": "uint256",
          "name": "",
          "type": "uint256"
        }
      ],
      "stateMutability": "view",
      "type": "function"
    },
    {
      "inputs": [
        {
          "internalType": "uint256",
          "name": "tokenId",
          "type": "uint256"
        }
      ],
      "name": "getApproved",
      "outputs": [
        {
          "internalType": "address",
          "name": "",
          "type": "address"
        }
      ],
      "stateMutability": "view",
      "type": "function"
    },
    {
      "inputs": [
        {
          "internalType": "address",
          "name": "user",
          "type": "address"
        }
      ],
      "name": "getBadgesOf",
      "outputs": [
        {
          "internalType": "uint256[]",
          "name": "",
          "type": "uint256[]"
        }
      ],
      "stateMutability": "view",
      "type": "function"
    },
    {
      "inputs": [
        {
          "internalType": "address",
          "name": "owner",
          "type": "address"
        },
        {
          "internalType": "address",
          "name": "operator",
          "type": "address"
        }
      ],
      "name": "isApprovedForAll",
      "outputs": [
        {
          "internalType": "bool",
          "name": "",
          "type": "bool"
        }
      ],
      "stateMutability": "view",
      "type": "function"
    },
    {
      "inputs": [
        {
          "internalType": "address",
          "name": "to",
          "type": "address"
        }
      ],
      "name": "mintBadge",
      "outputs": [],
      "stateMutability": "nonpayable",
      "type": "function"
    },
    {
      "inputs": [],
      "name": "name",
      "outputs": [
        {
          "internalType": "string",
          "name": "",
          "type": "string"
        }
      ],
      "stateMutability": "view",
      "type": "function"
    },
    {
      "inputs": [],
      "name": "nextTokenId",
      "outputs": [
        {
          "internalType": "uint256",
          "name": "",
          "type": "uint256"
        }
      ],
      "stateMutability": "view",
      "type": "function"
    },
    {
      "inputs": [],
      "name": "owner",
      "outputs": [
        {
          "internalType": "address",
          "name": "",
          "type": "address"
        }
      ],
      "stateMutability": "view",
      "type": "function"
    },
    {
      "inputs": [
        {
          "internalType": "uint256",
          "name": "tokenId",
          "type": "uint256"
        }
      ],
      "name": "ownerOf",
      "outputs": [
        {
          "internalType": "address",
          "name": "",
          "type": "address"
        }
      ],
      "stateMutability": "view",
      "type": "function"
    },
    {
      "inputs": [],
      "name": "renounceOwnership",
      "outputs": [],
      "stateMutability": "nonpayable",
      "type": "function"
    },
    {
      "inputs": [],
      "name": "reviewerContract",
      "outputs": [
        {
          "internalType": "address",
          "name": "",
          "type": "address"
        }
      ],
      "stateMutability": "view",
      "type": "function"
    },
    {
      "inputs": [
        {
          "internalType": "address",
          "name": "from",
          "type": "address"
        },
        {
          "internalType": "address",
          "name": "to",
          "type": "address"
        },
        {
          "internalType": "uint256",
          "name": "tokenId",
          "type": "uint256"
        }
      ],
      "name": "safeTransferFrom",
      "outputs": [],
      "stateMutability": "nonpayable",
      "type": "function"
    },
    {
      "inputs": [
        {
          "internalType": "address",
          "name": "from",
          "type": "address"
        },
        {
          "internalType": "address",
          "name": "to",
          "type": "address"
        },
        {
          "internalType": "uint256",
          "name": "tokenId",
          "type": "uint256"
        },
        {
          "internalType": "bytes",
          "name": "data",
          "type": "bytes"
        }
      ],
      "name": "safeTransferFrom",
      "outputs": [],
      "stateMutability": "nonpayable",
      "type": "function"
    },
    {
      "inputs": [
        {
          "internalType": "address",
          "name": "operator",
          "type": "address"
        },
        {
          "internalType": "bool",
          "name": "approved",
          "type": "bool"
        }
      ],
      "name": "setApprovalForAll",
      "outputs": [],
      "stateMutability": "nonpayable",
      "type": "function"
    },
    {
      "inputs": [
        {
          "internalType": "address",
          "name": "_reviews",
          "type": "address"
        }
      ],
      "name": "setReviewerContract",
      "outputs": [],
      "stateMutability": "nonpayable",
      "type": "function"
    },
    {
      "inputs": [
        {
          "internalType": "bytes4",
          "name": "interfaceId",
          "type": "bytes4"
        }
      ],
      "name": "supportsInterface",
      "outputs": [
        {
          "internalType": "bool",
          "name": "",
          "type": "bool"
        }
      ],
      "stateMutability": "view",
      "type": "function"
    },
    {
      "inputs": [],
      "name": "symbol",
      "outputs": [
        {
          "internalType": "string",
          "name": "",
          "type": "string"
        }
      ],
      "stateMutability": "view",
      "type": "function"
    },
    {
      "inputs": [
        {
          "internalType": "uint256",
          "name": "tokenId",
          "type": "uint256"
        }
      ],
      "name": "tokenURI",
      "outputs": [
        {
          "internalType": "string",
          "name": "",
          "type": "string"
        }
      ],
      "stateMutability": "view",
      "type": "function"
    },
    {
      "inputs": [
        {
          "internalType": "address",
          "name": "from",
          "type": "address"
        },
        {
          "internalType": "address",
          "name": "to",
          "type": "address"
        },
        {
          "internalType": "uint256",
          "name": "tokenId",
          "type": "uint256"
        }
      ],
      "name": "transferFrom",
      "outputs": [],
      "stateMutability": "nonpayable",
      "type": "function"
    },
    {
      "inputs": [
        {
          "internalType": "address",
          "name": "newOwner",
          "type": "address"
        }
      ],
      "name": "transferOwnership",
      "outputs": [],
      "stateMutability": "nonpayable",
      "type": "function"
    }
  ],
  "bytecode": "0x6080604052600160075534801562000015575f80fd5b50604051620015ca380380620015ca833981016040819052620000389162000130565b806040518060400160405280600b81526020016a436f66666565426164676560a81b8152506040518060400160405280600681526020016543424144474560d01b815250815f90816200008c9190620001ff565b5060016200009b8282620001ff565b5050506001600160a01b038116620000cc57604051631e4fbdf760e01b81525f600482015260240160405180910390fd5b620000d781620000df565b5050620002c7565b600680546001600160a01b038381166001600160a01b0319831681179093556040519116919082907f8be0079c531659141344cd1fd0a4f28419497f9722a3daafe3b4186f6b6457e0905f90a35050565b5f6020828403121562000141575f80fd5b81516001600160a01b038116811462000158575f80fd5b9392505050565b634e487b7160e01b5f52604160045260245ffd5b600181811c908216806200018857607f821691505b602082108103620001a757634e487b7160e01b5f52602260045260245ffd5b50919050565b601f821115620001fa575f81815260208120601f850160051c81016020861015620001d55750805b601f850160051c820191505b81811015620001f657828155600101620001e1565b5050505b505050565b81516001600160401b038111156200021b576200021b6200015f565b62000233816200022c845462000173565b84620001ad565b602080601f83116001811462000269575f8415620002515750858301515b5f19600386901b1c1916600185901b178555620001f6565b5f85815260208120601f198616915b82811015620002995788860151825594840194600190910190840162000278565b5085821015620002b757878501515f19600388901b60f8161c191681555b5050505050600190811b01905550565b6112f580620002d55f395ff3fe608060405234801561000f575f80fd5b506004361061013d575f3560e01c806370a08231116100b4578063a22cb46511610079578063a22cb46514610290578063b675beef146102a3578063b88d4fde146102b6578063c87b56dd146102c9578063e985e9c5146102dc578063f2fde38b146102ef575f80fd5b806370a0823114610253578063715018a61461026657806375794a3c1461026e5780638da5cb5b1461027757806395d89b4114610288575f80fd5b806320d9e14f1161010557806320d9e14f146101de57806323b872dd146101f457806342842e0e146102075780634a36f6e41461021a5780634ded6ac01461022d5780636352211e14610240575f80fd5b806301ffc9a71461014157806306fdde0314610169578063081812fc1461017e578063095ea7b3146101a95780630ec2e2f5146101be575b5f80fd5b61015461014f366004610ec8565b610302565b60405190151581526020015b60405180910390f35b610171610353565b6040516101609190610f37565b61019161018c366004610f49565b6103e2565b6040516001600160a01b039091168152602001610160565b6101bc6101b7366004610f7b565b610409565b005b6101d16101cc366004610fa3565b610418565b6040516101609190610fbc565b6101e6600481565b604051908152602001610160565b6101bc610202366004610fff565b610481565b6101bc610215366004610fff565b61050f565b6101bc610228366004610fa3565b61052e565b6101bc61023b366004610fa3565b6105f2565b61019161024e366004610f49565b61061c565b6101e6610261366004610fa3565b610626565b6101bc61066b565b6101e660075481565b6006546001600160a01b0316610191565b61017161067e565b6101bc61029e366004611038565b61068d565b600854610191906001600160a01b031681565b6101bc6102c4366004611085565b610698565b6101716102d7366004610f49565b6106b0565b6101546102ea36600461115a565b6106ea565b6101bc6102fd366004610fa3565b610717565b5f6001600160e01b031982166380ac58cd60e01b148061033257506001600160e01b03198216635b5e139f60e01b145b8061034d57506301ffc9a760e01b6001600160e01b03198316145b92915050565b60605f80546103619061118b565b80601f016020809104026020016040519081016040528092919081815260200182805461038d9061118b565b80156103d85780601f106103af576101008083540402835291602001916103d8565b820191905f5260205f20905b8154815290600101906020018083116103bb57829003601f168201915b5050505050905090565b5f6103ec82610754565b505f828152600460205260409020546001600160a01b031661034d565b61041482823361078c565b5050565b6001600160a01b0381165f9081526009602090815260409182902080548351818402810184019094528084526060939283018282801561047557602002820191905f5260205f20905b815481526020019060010190808311610461575b50505050509050919050565b6001600160a01b0382166104af57604051633250574960e11b81525f60048201526024015b60405180910390fd5b5f6104bb838333610799565b9050836001600160a01b0316816001600160a01b031614610509576040516364283d7b60e01b81526001600160a01b03808616600483015260248201849052821660448201526064016104a6565b50505050565b61052983838360405180602001604052805f815250610698565b505050565b6008546001600160a01b031633146105815760405162461bcd60e51b8152602060048201526016602482015275139bdd08185d5d1a1bdc9a5e9959081d1bc81b5a5b9d60521b60448201526064016104a6565b6001600160a01b0381165f908152600960205260409020546004116105a35750565b6007546105b0828261088b565b6001600160a01b0382165f908152600960209081526040822080546001810182559083529082200182905560078054916105e9836111c3565b91905055505050565b6105fa6108a4565b600880546001600160a01b0319166001600160a01b0392909216919091179055565b5f61034d82610754565b5f6001600160a01b038216610650576040516322718ad960e21b81525f60048201526024016104a6565b506001600160a01b03165f9081526003602052604090205490565b6106736108a4565b61067c5f6108d1565b565b6060600180546103619061118b565b610414338383610922565b6106a3848484610481565b61050933858585856109c0565b60606106ba610ae8565b6106c383610b08565b6040516020016106d49291906111e7565b6040516020818303038152906040529050919050565b6001600160a01b039182165f90815260056020908152604080832093909416825291909152205460ff1690565b61071f6108a4565b6001600160a01b03811661074857604051631e4fbdf760e01b81525f60048201526024016104a6565b610751816108d1565b50565b5f818152600260205260408120546001600160a01b03168061034d57604051637e27328960e01b8152600481018490526024016104a6565b6105298383836001610b98565b5f828152600260205260408120546001600160a01b03908116908316156107c5576107c5818486610c9c565b6001600160a01b038116156107ff576107e05f855f80610b98565b6001600160a01b0381165f90815260036020526040902080545f190190555b6001600160a01b0385161561082d576001600160a01b0385165f908152600360205260409020805460010190555b5f8481526002602052604080822080546001600160a01b0319166001600160a01b0389811691821790925591518793918516917fddf252ad1be2c89b69c2b068fc378daa952ba7f163c4a11628f55a4df523b3ef91a4949350505050565b610414828260405180602001604052805f815250610d00565b6006546001600160a01b0316331461067c5760405163118cdaa760e01b81523360048201526024016104a6565b600680546001600160a01b038381166001600160a01b0319831681179093556040519116919082907f8be0079c531659141344cd1fd0a4f28419497f9722a3daafe3b4186f6b6457e0905f90a35050565b6001600160a01b03821661095457604051630b61174360e31b81526001600160a01b03831660048201526024016104a6565b6001600160a01b038381165f81815260056020908152604080832094871680845294825291829020805460ff191686151590811790915591519182527f17307eab39ab6107e8899845ad3d59bd9653f200f220920489ca2b5937696c31910160405180910390a3505050565b6001600160a01b0383163b15610ae157604051630a85bd0160e11b81526001600160a01b0384169063150b7a0290610a02908890889087908790600401611225565b6020604051808303815f875af1925050508015610a3c575060408051601f3d908101601f19168201909252610a3991810190611261565b60015b610aa3573d808015610a69576040519150601f19603f3d011682016040523d82523d5f602084013e610a6e565b606091505b5080515f03610a9b57604051633250574960e11b81526001600160a01b03851660048201526024016104a6565b805160208201fd5b6001600160e01b03198116630a85bd0160e11b14610adf57604051633250574960e11b81526001600160a01b03851660048201526024016104a6565b505b5050505050565b606060405180608001604052806043815260200161127d60439139905090565b60605f610b1483610d17565b60010190505f8167ffffffffffffffff811115610b3357610b33611071565b6040519080825280601f01601f191660200182016040528015610b5d576020820181803683370190505b5090508181016020015b5f19016f181899199a1a9b1b9c1cb0b131b232b360811b600a86061a8153600a8504945084610b6757509392505050565b8080610bac57506001600160a01b03821615155b15610c6d575f610bbb84610754565b90506001600160a01b03831615801590610be75750826001600160a01b0316816001600160a01b031614155b8015610bfa5750610bf881846106ea565b155b15610c235760405163a9fbf51f60e01b81526001600160a01b03841660048201526024016104a6565b8115610c6b5783856001600160a01b0316826001600160a01b03167f8c5be1e5ebec7d5bd14f71427d1e84f3dd0314c0f7b2291e5b200ac8c7c3b92560405160405180910390a45b505b50505f90815260046020526040902080546001600160a01b0319166001600160a01b0392909216919091179055565b610ca7838383610dee565b610529576001600160a01b038316610cd557604051637e27328960e01b8152600481018290526024016104a6565b60405163177e802f60e01b81526001600160a01b0383166004820152602481018290526044016104a6565b610d0a8383610e52565b610529335f8585856109c0565b5f8072184f03e93ff9f4daa797ed6e38ed64bf6a1f0160401b8310610d555772184f03e93ff9f4daa797ed6e38ed64bf6a1f0160401b830492506040015b6d04ee2d6d415b85acef81000000008310610d81576d04ee2d6d415b85acef8100000000830492506020015b662386f26fc100008310610d9f57662386f26fc10000830492506010015b6305f5e1008310610db7576305f5e100830492506008015b6127108310610dcb57612710830492506004015b60648310610ddd576064830492506002015b600a831061034d5760010192915050565b5f6001600160a01b03831615801590610e4a5750826001600160a01b0316846001600160a01b03161480610e275750610e2784846106ea565b80610e4a57505f828152600460205260409020546001600160a01b038481169116145b949350505050565b6001600160a01b038216610e7b57604051633250574960e11b81525f60048201526024016104a6565b5f610e8783835f610799565b90506001600160a01b03811615610529576040516339e3563760e11b81525f60048201526024016104a6565b6001600160e01b031981168114610751575f80fd5b5f60208284031215610ed8575f80fd5b8135610ee381610eb3565b9392505050565b5f5b83811015610f04578181015183820152602001610eec565b50505f910152565b5f8151808452610f23816020860160208601610eea565b601f01601f19169290920160200192915050565b602081525f610ee36020830184610f0c565b5f60208284031215610f59575f80fd5b5035919050565b80356001600160a01b0381168114610f76575f80fd5b919050565b5f8060408385031215610f8c575f80fd5b610f9583610f60565b946020939093013593505050565b5f60208284031215610fb3575f80fd5b610ee382610f60565b602080825282518282018190525f9190848201906040850190845b81811015610ff357835183529284019291840191600101610fd7565b50909695505050505050565b5f805f60608486031215611011575f80fd5b61101a84610f60565b925061102860208501610f60565b9150604084013590509250925092565b5f8060408385031215611049575f80fd5b61105283610f60565b915060208301358015158114611066575f80fd5b809150509250929050565b634e487b7160e01b5f52604160045260245ffd5b5f805f8060808587031215611098575f80fd5b6110a185610f60565b93506110af60208601610f60565b925060408501359150606085013567ffffffffffffffff808211156110d2575f80fd5b818701915087601f8301126110e5575f80fd5b8135818111156110f7576110f7611071565b604051601f8201601f19908116603f0116810190838211818310171561111f5761111f611071565b816040528281528a6020848701011115611137575f80fd5b826020860160208301375f60208483010152809550505050505092959194509250565b5f806040838503121561116b575f80fd5b61117483610f60565b915061118260208401610f60565b90509250929050565b600181811c9082168061119f57607f821691505b6020821081036111bd57634e487b7160e01b5f52602260045260245ffd5b50919050565b5f600182016111e057634e487b7160e01b5f52601160045260245ffd5b5060010190565b5f83516111f8818460208801610eea565b83519083019061120c818360208801610eea565b64173539b7b760d91b9101908152600501949350505050565b6001600160a01b03858116825284166020820152604081018390526080606082018190525f9061125790830184610f0c565b9695505050505050565b5f60208284031215611271575f80fd5b8151610ee381610eb356fe697066733a2f2f6261667962656962776c737a6a3564656a6f6c636a6c6a3671646e68646f76736c6133756f6e6235656f32766768673462706f37786e69356b36692fa2646970667358221220dc486f60d3f7eaefe76d4c2d6e204e3e8ff2f9a91941ce64947b54ef4cbe79d364736f6c63430008140033",
  "linkReferences": {},
  "deployedLinkReferences": {},
  "immutableReferences": {},
  "inputSourceName": "project/contracts/CoffeeBadge.sol",
  "buildInfoId": "solc-0_8_20-0a3470ff77f4166beec47510b1491aabecf51f92"
}