{
  "_format": "hh3-artifact-1",
  "contractName": "CoffeeBadge",
  "sourceName": "contracts/CoffeeBadge.sol",
  "abi": [
    {
      "inputs": [
        {
          "internalType": "address",
          "name": "initialOwner",
          "type": "address"
        }
      ],
      "stateMutability": "nonpayable",
      "type": "constructor"
    },
    {
      "inputs": [
        {
          "internalType": "address",
          "name": "sender",
          "type": "address"
        },
        {
          "internalType": "uint256",
          "name": "tokenId",
          "type": "uint256"
        },
        {
          "internalType": "address",
          "name": "owner",
          "type": "address"
        }
      ],
      "name": "ERC721IncorrectOwner",
      "type": "error"
    },
    {
      "inputs": [
        {
          "internalType": "address",
          "name": "operator",
          "type": "address"
        },
        {
          "internalType": "uint256",
          "name": "tokenId",
          "type": "uint256"
        }
      ],
      "name": "ERC721InsufficientApproval",
      "type": "error"
    },
    {
      "inputs": [
        {
          "internalType": "address",
          "name": "approver",
          "type": "address"
        }
      ],
      "name": "ERC721InvalidApprover",
      "type": "error"
    },
    {
      "inputs": [
        {
          "internalType": "address",
          "name": "operator",
          "type": "address"
        }
      ],
      "name": "ERC721InvalidOperator",
      "type": "error"
    },
    {
      "inputs": [
        {
          "internalType": "address",
          "name": "owner",
          "type": "address"
        }
      ],
      "name": "ERC721InvalidOwner",
      "type": "error"
    },
    {
      "inputs": [
        {
          "internalType": "address",
          "name": "receiver",
          "type": "address"
        }
      ],
      "name": "ERC721InvalidReceiver",
      "type": "error"
    },
    {
      "inputs": [
        {
          "internalType": "address",
          "name": "sender",
          "type": "address"
        }
      ],
      "name": "ERC721InvalidSender",
      "type": "error"
    },
    {
      "inputs": [
        {
          "internalType": "uint256",
          "name": "tokenId",
          "type": "uint256"
        }
      ],
      "name": "ERC721NonexistentToken",
      "type": "error"
    },
    {
      "inputs": [
        {
          "internalType": "address",
          "name": "owner",
          "type": "address"
        }
      ],
      "name": "OwnableInvalidOwner",
      "type": "error"
    },
    {
      "inputs": [
        {
          "internalType": "address",
          "name": "account",
          "type": "address"
        }
      ],
      "name": "OwnableUnauthorizedAccount",
      "type": "error"
    },
    {
      "anonymous": false,
      "inputs": [
        {
          "indexed": true,
          "internalType": "address",
          "name": "owner",
          "type": "address"
        },
        {
          "indexed": true,
          "internalType": "address",
          "name": "approved",
          "type": "address"
        },
        {
          "indexed": true,
          "internalType": "uint256",
          "name": "tokenId",
          "type": "uint256"
        }
      ],
      "name": "Approval",
      "type": "event"
    },
    {
      "anonymous": false,
      "inputs": [
        {
          "indexed": true,
          "internalType": "address",
          "name": "owner",
          "type": "address"
        },
        {
          "indexed": true,
          "internalType": "address",
          "name": "operator",
          "type": "address"
        },
        {
          "indexed": false,
          "internalType": "bool",
          "name": "approved",
          "type": "bool"
        }
      ],
      "name": "ApprovalForAll",
      "type": "event"
    },
    {
      "anonymous": false,
      "inputs": [
        {
          "indexed": true,
          "internalType": "address",
          "name": "previousOwner",
          "type": "address"
        },
        {
          "indexed": true,
          "internalType": "address",
          "name": "newOwner",
          "type": "address"
        }
      ],
      "name": "OwnershipTransferred",
      "type": "event"
    },
    {
      "anonymous": false,
      "inputs": [
        {
          "indexed": true,
          "internalType": "address",
          "name": "from",
          "type": "address"
        },
        {
          "indexed": true,
          "internalType": "address",
          "name": "to",
          "type": "address"
        },
        {
          "indexed": true,
          "internalType": "uint256",
          "name": "tokenId",
          "type": "uint256"
        }
      ],
      "name": "Transfer",
      "type": "event"
    },
    {
      "inputs": [],
      "name": "MAX_BADGES",
      "outputs": [
        {
          "internalType": "uint256",
          "name": "",
          "type": "uint256"
        }
      ],
      "stateMutability": "view",
      "type": "function"
    },
    {
      "inputs": [
        {
          "internalType": "address",
          "name": "to",
          "type": "address"
        },
        {
          "internalType": "uint256",
          "name": "tokenId",
          "type": "uint256"
        }
      ],
      "name": "approve",
      "outputs": [],
      "stateMutability": "nonpayable",
      "type": "function"
    },
    {
      "inputs": [
        {
          "internalType": "address",
          "name": "owner",
          "type": "address"
        }
      ],
      "name": "balanceOf",
      "outputs": [
        {
          "internalType": "uint256",
          "name": "",
          "type": "uint256"
        }
      ],
      "stateMutability": "view",
      "type": "function"
    },
    {
      "inputs": [
        {
          "internalType": "uint256",
          "name": "tokenId",
          "type": "uint256"
        }
      ],
      "name": "getApproved",
      "outputs": [
        {
          "internalType": "address",
          "name": "",
          "type": "address"
        }
      ],
      "stateMutability": "view",
      "type": "function"
    },
    {
      "inputs": [
        {
          "internalType": "address",
          "name": "user",
          "type": "address"
        }
      ],
      "name": "getBadgesOf",
      "outputs": [
        {
          "internalType": "uint256[]",
          "name": "",
          "type": "uint256[]"
        }
      ],
      "stateMutability": "view",
      "type": "function"
    },
    {
      "inputs": [
        {
          "internalType": "address",
          "name": "",
          "type": "address"
        },
        {
          "internalType": "uint256",
          "name": "",
          "type": "uint256"
        }
      ],
      "name": "hasBadge",
      "outputs": [
        {
          "internalType": "bool",
          "name": "",
          "type": "bool"
        }
      ],
      "stateMutability": "view",
      "type": "function"
    },
    {
      "inputs": [
        {
          "internalType": "address",
          "name": "owner",
          "type": "address"
        },
        {
          "internalType": "address",
          "name": "operator",
          "type": "address"
        }
      ],
      "name": "isApprovedForAll",
      "outputs": [
        {
          "internalType": "bool",
          "name": "",
          "type": "bool"
        }
      ],
      "stateMutability": "view",
      "type": "function"
    },
    {
      "inputs": [
        {
          "internalType": "address",
          "name": "to",
          "type": "address"
        },
        {
          "internalType": "uint256",
          "name": "badgeId",
          "type": "uint256"
        }
      ],
      "name": "mintBadge",
      "outputs": [],
      "stateMutability": "nonpayable",
      "type": "function"
    },
    {
      "inputs": [],
      "name": "name",
      "outputs": [
        {
          "internalType": "string",
          "name": "",
          "type": "string"
        }
      ],
      "stateMutability": "view",
      "type": "function"
    },
    {
      "inputs": [],
      "name": "owner",
      "outputs": [
        {
          "internalType": "address",
          "name": "",
          "type": "address"
        }
      ],
      "stateMutability": "view",
      "type": "function"
    },
    {
      "inputs": [
        {
          "internalType": "uint256",
          "name": "tokenId",
          "type": "uint256"
        }
      ],
      "name": "ownerOf",
      "outputs": [
        {
          "internalType": "address",
          "name": "",
          "type": "address"
        }
      ],
      "stateMutability": "view",
      "type": "function"
    },
    {
      "inputs": [],
      "name": "renounceOwnership",
      "outputs": [],
      "stateMutability": "nonpayable",
      "type": "function"
    },
    {
      "inputs": [],
      "name": "reviewerContract",
      "outputs": [
        {
          "internalType": "address",
          "name": "",
          "type": "address"
        }
      ],
      "stateMutability": "view",
      "type": "function"
    },
    {
      "inputs": [
        {
          "internalType": "address",
          "name": "from",
          "type": "address"
        },
        {
          "internalType": "address",
          "name": "to",
          "type": "address"
        },
        {
          "internalType": "uint256",
          "name": "tokenId",
          "type": "uint256"
        }
      ],
      "name": "safeTransferFrom",
      "outputs": [],
      "stateMutability": "nonpayable",
      "type": "function"
    },
    {
      "inputs": [
        {
          "internalType": "address",
          "name": "from",
          "type": "address"
        },
        {
          "internalType": "address",
          "name": "to",
          "type": "address"
        },
        {
          "internalType": "uint256",
          "name": "tokenId",
          "type": "uint256"
        },
        {
          "internalType": "bytes",
          "name": "data",
          "type": "bytes"
        }
      ],
      "name": "safeTransferFrom",
      "outputs": [],
      "stateMutability": "nonpayable",
      "type": "function"
    },
    {
      "inputs": [
        {
          "internalType": "address",
          "name": "operator",
          "type": "address"
        },
        {
          "internalType": "bool",
          "name": "approved",
          "type": "bool"
        }
      ],
      "name": "setApprovalForAll",
      "outputs": [],
      "stateMutability": "nonpayable",
      "type": "function"
    },
    {
      "inputs": [
        {
          "internalType": "address",
          "name": "_reviews",
          "type": "address"
        }
      ],
      "name": "setReviewerContract",
      "outputs": [],
      "stateMutability": "nonpayable",
      "type": "function"
    },
    {
      "inputs": [
        {
          "internalType": "bytes4",
          "name": "interfaceId",
          "type": "bytes4"
        }
      ],
      "name": "supportsInterface",
      "outputs": [
        {
          "internalType": "bool",
          "name": "",
          "type": "bool"
        }
      ],
      "stateMutability": "view",
      "type": "function"
    },
    {
      "inputs": [],
      "name": "symbol",
      "outputs": [
        {
          "internalType": "string",
          "name": "",
          "type": "string"
        }
      ],
      "stateMutability": "view",
      "type": "function"
    },
    {
      "inputs": [
        {
          "internalType": "uint256",
          "name": "tokenId",
          "type": "uint256"
        }
      ],
      "name": "tokenURI",
      "outputs": [
        {
          "internalType": "string",
          "name": "",
          "type": "string"
        }
      ],
      "stateMutability": "view",
      "type": "function"
    },
    {
      "inputs": [
        {
          "internalType": "address",
          "name": "from",
          "type": "address"
        },
        {
          "internalType": "address",
          "name": "to",
          "type": "address"
        },
        {
          "internalType": "uint256",
          "name": "tokenId",
          "type": "uint256"
        }
      ],
      "name": "transferFrom",
      "outputs": [],
      "stateMutability": "nonpayable",
      "type": "function"
    },
    {
      "inputs": [
        {
          "internalType": "address",
          "name": "newOwner",
          "type": "address"
        }
      ],
      "name": "transferOwnership",
      "outputs": [],
      "stateMutability": "nonpayable",
      "type": "function"
    }
  ],
  "bytecode": "0x608060405234801562000010575f80fd5b50604051620016993803806200169983398101604081905262000033916200012b565b806040518060400160405280600b81526020016a436f66666565426164676560a81b8152506040518060400160405280600681526020016543424144474560d01b815250815f9081620000879190620001fa565b506001620000968282620001fa565b5050506001600160a01b038116620000c757604051631e4fbdf760e01b81525f600482015260240160405180910390fd5b620000d281620000da565b5050620002c2565b600680546001600160a01b038381166001600160a01b0319831681179093556040519116919082907f8be0079c531659141344cd1fd0a4f28419497f9722a3daafe3b4186f6b6457e0905f90a35050565b5f602082840312156200013c575f80fd5b81516001600160a01b038116811462000153575f80fd5b9392505050565b634e487b7160e01b5f52604160045260245ffd5b600181811c908216806200018357607f821691505b602082108103620001a257634e487b7160e01b5f52602260045260245ffd5b50919050565b601f821115620001f5575f81815260208120601f850160051c81016020861015620001d05750805b601f850160051c820191505b81811015620001f157828155600101620001dc565b5050505b505050565b81516001600160401b038111156200021657620002166200015a565b6200022e816200022784546200016e565b84620001a8565b602080601f83116001811462000264575f84156200024c5750858301515b5f19600386901b1c1916600185901b178555620001f1565b5f85815260208120601f198616915b82811015620002945788860151825594840194600190910190840162000273565b5085821015620002b257878501515f19600388901b60f8161c191681555b5050505050600190811b01905550565b6113c980620002d05f395ff3fe608060405234801561000f575f80fd5b506004361061013d575f3560e01c806370a08231116100b4578063b675beef11610079578063b675beef146102b4578063b88d4fde146102c7578063c87b56dd146102da578063e42bff66146102ed578063e985e9c514610300578063f2fde38b14610313575f80fd5b806370a082311461026d578063715018a6146102805780638da5cb5b1461028857806395d89b4114610299578063a22cb465146102a1575f80fd5b806320d9e14f1161010557806320d9e14f146101de57806323b872dd146101f457806342842e0e146102075780634c6a70ce1461021a5780634ded6ac0146102475780636352211e1461025a575f80fd5b806301ffc9a71461014157806306fdde0314610169578063081812fc1461017e578063095ea7b3146101a95780630ec2e2f5146101be575b5f80fd5b61015461014f366004610fc0565b610326565b60405190151581526020015b60405180910390f35b610171610377565b604051610160919061102f565b61019161018c366004611041565b610406565b6040516001600160a01b039091168152602001610160565b6101bc6101b7366004611073565b61042d565b005b6101d16101cc36600461109b565b61043c565b60405161016091906110b4565b6101e6600481565b604051908152602001610160565b6101bc6102023660046110f7565b6104a5565b6101bc6102153660046110f7565b610533565b610154610228366004611073565b600960209081525f928352604080842090915290825290205460ff1681565b6101bc61025536600461109b565b610552565b610191610268366004611041565b61057c565b6101e661027b36600461109b565b610586565b6101bc6105cb565b6006546001600160a01b0316610191565b6101716105de565b6101bc6102af366004611130565b6105ed565b600754610191906001600160a01b031681565b6101bc6102d536600461117d565b6105f8565b6101716102e8366004611041565b610610565b6101bc6102fb366004611073565b61064a565b61015461030e366004611252565b6107e2565b6101bc61032136600461109b565b61080f565b5f6001600160e01b031982166380ac58cd60e01b148061035657506001600160e01b03198216635b5e139f60e01b145b8061037157506301ffc9a760e01b6001600160e01b03198316145b92915050565b60605f805461038590611283565b80601f01602080910402602001604051908101604052809291908181526020018280546103b190611283565b80156103fc5780601f106103d3576101008083540402835291602001916103fc565b820191905f5260205f20905b8154815290600101906020018083116103df57829003601f168201915b5050505050905090565b5f6104108261084c565b505f828152600460205260409020546001600160a01b0316610371565b610438828233610884565b5050565b6001600160a01b0381165f9081526008602090815260409182902080548351818402810184019094528084526060939283018282801561049957602002820191905f5260205f20905b815481526020019060010190808311610485575b50505050509050919050565b6001600160a01b0382166104d357604051633250574960e11b81525f60048201526024015b60405180910390fd5b5f6104df838333610891565b9050836001600160a01b0316816001600160a01b03161461052d576040516364283d7b60e01b81526001600160a01b03808616600483015260248201849052821660448201526064016104ca565b50505050565b61054d83838360405180602001604052805f8152506105f8565b505050565b61055a610983565b600780546001600160a01b0319166001600160a01b0392909216919091179055565b5f6103718261084c565b5f6001600160a01b0382166105b0576040516322718ad960e21b81525f60048201526024016104ca565b506001600160a01b03165f9081526003602052604090205490565b6105d3610983565b6105dc5f6109b0565b565b60606001805461038590611283565b610438338383610a01565b6106038484846104a5565b61052d3385858585610a9f565b606061061a610bc7565b61062383610be7565b6040516020016106349291906112bb565b6040516020818303038152906040529050919050565b6007546001600160a01b031633146106955760405162461bcd60e51b815260206004820152600e60248201526d139bdd08185d5d1a1bdc9a5e995960921b60448201526064016104ca565b600181101580156106a7575060048111155b6106e35760405162461bcd60e51b815260206004820152600d60248201526c496e76616c696420626164676560981b60448201526064016104ca565b6001600160a01b0382165f90815260096020908152604080832084845290915290205460ff161561074c5760405162461bcd60e51b815260206004820152601360248201527210985919d948185b1c9958591e481bdddb9959606a1b60448201526064016104ca565b6040516bffffffffffffffffffffffff19606084901b166020820152603481018290525f90605401604051602081830303815290604052805190602001205f1c90506107988382610c77565b506001600160a01b039091165f8181526009602090815260408083208584528252808320805460ff1916600190811790915593835260088252822080549384018155825290200155565b6001600160a01b039182165f90815260056020908152604080832093909416825291909152205460ff1690565b610817610983565b6001600160a01b03811661084057604051631e4fbdf760e01b81525f60048201526024016104ca565b610849816109b0565b50565b5f818152600260205260408120546001600160a01b03168061037157604051637e27328960e01b8152600481018490526024016104ca565b61054d8383836001610c90565b5f828152600260205260408120546001600160a01b03908116908316156108bd576108bd818486610d94565b6001600160a01b038116156108f7576108d85f855f80610c90565b6001600160a01b0381165f90815260036020526040902080545f190190555b6001600160a01b03851615610925576001600160a01b0385165f908152600360205260409020805460010190555b5f8481526002602052604080822080546001600160a01b0319166001600160a01b0389811691821790925591518793918516917fddf252ad1be2c89b69c2b068fc378daa952ba7f163c4a11628f55a4df523b3ef91a4949350505050565b6006546001600160a01b031633146105dc5760405163118cdaa760e01b81523360048201526024016104ca565b600680546001600160a01b038381166001600160a01b0319831681179093556040519116919082907f8be0079c531659141344cd1fd0a4f28419497f9722a3daafe3b4186f6b6457e0905f90a35050565b6001600160a01b038216610a3357604051630b61174360e31b81526001600160a01b03831660048201526024016104ca565b6001600160a01b038381165f81815260056020908152604080832094871680845294825291829020805460ff191686151590811790915591519182527f17307eab39ab6107e8899845ad3d59bd9653f200f220920489ca2b5937696c31910160405180910390a3505050565b6001600160a01b0383163b15610bc057604051630a85bd0160e11b81526001600160a01b0384169063150b7a0290610ae19088908890879087906004016112f9565b6020604051808303815f875af1925050508015610b1b575060408051601f3d908101601f19168201909252610b1891810190611335565b60015b610b82573d808015610b48576040519150601f19603f3d011682016040523d82523d5f602084013e610b4d565b606091505b5080515f03610b7a57604051633250574960e11b81526001600160a01b03851660048201526024016104ca565b805160208201fd5b6001600160e01b03198116630a85bd0160e11b14610bbe57604051633250574960e11b81526001600160a01b03851660048201526024016104ca565b505b5050505050565b606060405180608001604052806043815260200161135160439139905090565b60605f610bf383610df8565b60010190505f8167ffffffffffffffff811115610c1257610c12611169565b6040519080825280601f01601f191660200182016040528015610c3c576020820181803683370190505b5090508181016020015b5f19016f181899199a1a9b1b9c1cb0b131b232b360811b600a86061a8153600a8504945084610c4657509392505050565b610438828260405180602001604052805f815250610ecf565b8080610ca457506001600160a01b03821615155b15610d65575f610cb38461084c565b90506001600160a01b03831615801590610cdf5750826001600160a01b0316816001600160a01b031614155b8015610cf25750610cf081846107e2565b155b15610d1b5760405163a9fbf51f60e01b81526001600160a01b03841660048201526024016104ca565b8115610d635783856001600160a01b0316826001600160a01b03167f8c5be1e5ebec7d5bd14f71427d1e84f3dd0314c0f7b2291e5b200ac8c7c3b92560405160405180910390a45b505b50505f90815260046020526040902080546001600160a01b0319166001600160a01b0392909216919091179055565b610d9f838383610ee6565b61054d576001600160a01b038316610dcd57604051637e27328960e01b8152600481018290526024016104ca565b60405163177e802f60e01b81526001600160a01b0383166004820152602481018290526044016104ca565b5f8072184f03e93ff9f4daa797ed6e38ed64bf6a1f0160401b8310610e365772184f03e93ff9f4daa797ed6e38ed64bf6a1f0160401b830492506040015b6d04ee2d6d415b85acef81000000008310610e62576d04ee2d6d415b85acef8100000000830492506020015b662386f26fc100008310610e8057662386f26fc10000830492506010015b6305f5e1008310610e98576305f5e100830492506008015b6127108310610eac57612710830492506004015b60648310610ebe576064830492506002015b600a83106103715760010192915050565b610ed98383610f4a565b61054d335f858585610a9f565b5f6001600160a01b03831615801590610f425750826001600160a01b0316846001600160a01b03161480610f1f5750610f1f84846107e2565b80610f4257505f828152600460205260409020546001600160a01b038481169116145b949350505050565b6001600160a01b038216610f7357604051633250574960e11b81525f60048201526024016104ca565b5f610f7f83835f610891565b90506001600160a01b0381161561054d576040516339e3563760e11b81525f60048201526024016104ca565b6001600160e01b031981168114610849575f80fd5b5f60208284031215610fd0575f80fd5b8135610fdb81610fab565b9392505050565b5f5b83811015610ffc578181015183820152602001610fe4565b50505f910152565b5f815180845261101b816020860160208601610fe2565b601f01601f19169290920160200192915050565b602081525f610fdb6020830184611004565b5f60208284031215611051575f80fd5b5035919050565b80356001600160a01b038116811461106e575f80fd5b919050565b5f8060408385031215611084575f80fd5b61108d83611058565b946020939093013593505050565b5f602082840312156110ab575f80fd5b610fdb82611058565b602080825282518282018190525f9190848201906040850190845b818110156110eb578351835292840192918401916001016110cf565b50909695505050505050565b5f805f60608486031215611109575f80fd5b61111284611058565b925061112060208501611058565b9150604084013590509250925092565b5f8060408385031215611141575f80fd5b61114a83611058565b91506020830135801515811461115e575f80fd5b809150509250929050565b634e487b7160e01b5f52604160045260245ffd5b5f805f8060808587031215611190575f80fd5b61119985611058565b93506111a760208601611058565b925060408501359150606085013567ffffffffffffffff808211156111ca575f80fd5b818701915087601f8301126111dd575f80fd5b8135818111156111ef576111ef611169565b604051601f8201601f19908116603f0116810190838211818310171561121757611217611169565b816040528281528a602084870101111561122f575f80fd5b826020860160208301375f60208483010152809550505050505092959194509250565b5f8060408385031215611263575f80fd5b61126c83611058565b915061127a60208401611058565b90509250929050565b600181811c9082168061129757607f821691505b6020821081036112b557634e487b7160e01b5f52602260045260245ffd5b50919050565b5f83516112cc818460208801610fe2565b8351908301906112e0818360208801610fe2565b64173539b7b760d91b9101908152600501949350505050565b6001600160a01b03858116825284166020820152604081018390526080606082018190525f9061132b90830184611004565b9695505050505050565b5f60208284031215611345575f80fd5b8151610fdb81610fab56fe697066733a2f2f6261667962656962776c737a6a3564656a6f6c636a6c6a3671646e68646f76736c6133756f6e6235656f32766768673462706f37786e69356b36692fa2646970667358221220f5a5fd6a9b072b3526e5b22d17de6abef19aaacc2640c13f21e774e57f99966d64736f6c63430008140033",
  "linkReferences": {},
  "deployedLinkReferences": {},
  "immutableReferences": {},
  "inputSourceName": "project/contracts/CoffeeBadge.sol",
  "buildInfoId": "solc-0_8_20-e36883ecf3ed8d796c7aad466f991ccfa349f79d"
}