{
  "_format": "hh3-artifact-1",
  "contractName": "CoffeeReviews",
  "sourceName": "contracts/CoffeeReviews.sol",
  "abi": [
    {
      "inputs": [
        {
          "internalType": "address",
          "name": "_coffeeToken",
          "type": "address"
        },
        {
          "internalType": "address",
          "name": "_coffeeBadge",
          "type": "address"
        }
      ],
      "stateMutability": "nonpayable",
      "type": "constructor"
    },
    {
      "anonymous": false,
      "inputs": [
        {
          "indexed": true,
          "internalType": "address",
          "name": "user",
          "type": "address"
        },
        {
          "indexed": false,
          "internalType": "uint256",
          "name": "timestamp",
          "type": "uint256"
        }
      ],
      "name": "BadgeAwarded",
      "type": "event"
    },
    {
      "anonymous": false,
      "inputs": [
        {
          "indexed": true,
          "internalType": "address",
          "name": "reviewer",
          "type": "address"
        },
        {
          "indexed": true,
          "internalType": "bytes32",
          "name": "coffeeCode",
          "type": "bytes32"
        },
        {
          "indexed": false,
          "internalType": "uint8",
          "name": "rating",
          "type": "uint8"
        },
        {
          "indexed": false,
          "internalType": "string",
          "name": "text",
          "type": "string"
        },
        {
          "indexed": false,
          "internalType": "uint256",
          "name": "timestamp",
          "type": "uint256"
        }
      ],
      "name": "ReviewPosted",
      "type": "event"
    },
    {
      "inputs": [],
      "name": "BADGE_THRESHOLD",
      "outputs": [
        {
          "internalType": "uint256",
          "name": "",
          "type": "uint256"
        }
      ],
      "stateMutability": "view",
      "type": "function"
    },
    {
      "inputs": [],
      "name": "coffeeBadge",
      "outputs": [
        {
          "internalType": "contract ICoffeeBadge",
          "name": "",
          "type": "address"
        }
      ],
      "stateMutability": "view",
      "type": "function"
    },
    {
      "inputs": [],
      "name": "coffeeToken",
      "outputs": [
        {
          "internalType": "contract ICoffeeToken",
          "name": "",
          "type": "address"
        }
      ],
      "stateMutability": "view",
      "type": "function"
    },
    {
      "inputs": [
        {
          "internalType": "uint256",
          "name": "index",
          "type": "uint256"
        }
      ],
      "name": "getReview",
      "outputs": [
        {
          "internalType": "address",
          "name": "reviewer",
          "type": "address"
        },
        {
          "internalType": "bytes32",
          "name": "coffeeCode",
          "type": "bytes32"
        },
        {
          "internalType": "uint8",
          "name": "rating",
          "type": "uint8"
        },
        {
          "internalType": "string",
          "name": "text",
          "type": "string"
        },
        {
          "internalType": "uint256",
          "name": "timestamp",
          "type": "uint256"
        }
      ],
      "stateMutability": "view",
      "type": "function"
    },
    {
      "inputs": [],
      "name": "getTotalReviews",
      "outputs": [
        {
          "internalType": "uint256",
          "name": "",
          "type": "uint256"
        }
      ],
      "stateMutability": "view",
      "type": "function"
    },
    {
      "inputs": [
        {
          "internalType": "bytes32",
          "name": "coffeeCode",
          "type": "bytes32"
        },
        {
          "internalType": "uint8",
          "name": "rating",
          "type": "uint8"
        },
        {
          "internalType": "string",
          "name": "text",
          "type": "string"
        }
      ],
      "name": "postReview",
      "outputs": [],
      "stateMutability": "nonpayable",
      "type": "function"
    },
    {
      "inputs": [
        {
          "internalType": "address",
          "name": "",
          "type": "address"
        }
      ],
      "name": "reviewCount",
      "outputs": [
        {
          "internalType": "uint256",
          "name": "",
          "type": "uint256"
        }
      ],
      "stateMutability": "view",
      "type": "function"
    },
    {
      "inputs": [
        {
          "internalType": "uint256",
          "name": "",
          "type": "uint256"
        }
      ],
      "name": "reviews",
      "outputs": [
        {
          "internalType": "address",
          "name": "reviewer",
          "type": "address"
        },
        {
          "internalType": "bytes32",
          "name": "coffeeCode",
          "type": "bytes32"
        },
        {
          "internalType": "uint8",
          "name": "rating",
          "type": "uint8"
        },
        {
          "internalType": "string",
          "name": "text",
          "type": "string"
        },
        {
          "internalType": "uint256",
          "name": "timestamp",
          "type": "uint256"
        }
      ],
      "stateMutability": "view",
      "type": "function"
    }
  ],
  "bytecode": "0x608060405234801561000f575f80fd5b50604051610b2c380380610b2c83398101604081905261002e9161012a565b6001600160a01b0382166100895760405162461bcd60e51b815260206004820152601560248201527f496e76616c696420746f6b656e2061646472657373000000000000000000000060448201526064015b60405180910390fd5b6001600160a01b0381166100df5760405162461bcd60e51b815260206004820152601560248201527f496e76616c6964206261646765206164647265737300000000000000000000006044820152606401610080565b5f80546001600160a01b039384166001600160a01b0319918216179091556001805492909316911617905561015b565b80516001600160a01b0381168114610125575f80fd5b919050565b5f806040838503121561013b575f80fd5b6101448361010f565b91506101526020840161010f565b90509250929050565b6109c4806101685f395ff3fe608060405234801561000f575f80fd5b5060043610610085575f3560e01c8063990581b611610058578063990581b6146100fc578063b3500bec14610120578063e83ddcea14610135578063f70a459714610148575f80fd5b806325f60082146100895780638ea5b536146100a057806391d025e7146100cb5780639879f7fb146100dd575b5f80fd5b6002545b6040519081526020015b60405180910390f35b6001546100b3906001600160a01b031681565b6040516001600160a01b039091168152602001610097565b5f546100b3906001600160a01b031681565b61008d6100eb366004610647565b60036020525f908152604090205481565b61010f61010a366004610674565b610150565b60405161009795949392919061068b565b61013361012e3660046106fe565b610277565b005b61010f610143366004610674565b61056f565b61008d600581565b5f805f60605f806002878154811061016a5761016a610785565b5f9182526020918290206040805160a081018252600590930290910180546001600160a01b03168352600181015493830193909352600283015460ff16908201526003820180549192916060840191906101c390610799565b80601f01602080910402602001604051908101604052809291908181526020018280546101ef90610799565b801561023a5780601f106102115761010080835404028352916020019161023a565b820191905f5260205f20905b81548152906001019060200180831161021d57829003601f168201915b50505091835250506004919091015460209182015281519082015160408301516060840151608090940151929b919a509850919650945092505050565b60018360ff161015801561028f575060058360ff1611155b6102d45760405162461bcd60e51b8152602060048201526012602482015271526174696e67206d75737420626520312d3560701b604482015260640160405180910390fd5b60026040518060a00160405280336001600160a01b031681526020018681526020018560ff16815260200184848080601f0160208091040260200160405190810160405280939291908181526020018383808284375f9201829052509385525050426020938401525083546001808201865594825290829020835160059092020180546001600160a01b0319166001600160a01b039092169190911781559082015192810192909255604081015160028301805460ff191660ff909216919091179055606081015190919060038201906103ae9082610833565b5060809190910151600490910155335f9081526003602052604081208054916103d6836108ef565b90915550505f5460405163a6afd7db60e01b81523360048201526001600160a01b039091169063a6afd7db906024015f604051808303815f87803b15801561041c575f80fd5b505af115801561042e573d5f803e3d5ffd5b5050505083336001600160a01b03167fab50df15c897caadaeefb728f1a5f57d0ba46866bc8f4742f7795283a902f6e2858585426040516104729493929190610913565b60405180910390a3335f9081526003602052604081205461049590600590610968565b335f908152600360205260409020549091506104b39060059061097b565b1580156104c1575060018110155b80156104ce575060048111155b1561056857600154604051637215ffb360e11b8152336004820152602481018390526001600160a01b039091169063e42bff66906044015f604051808303815f87803b15801561051c575f80fd5b505af115801561052e573d5f803e3d5ffd5b50506040514281523392507f1538e5a8b6d7b9193ea22abf96eb33aa999b6bc1d9728157028f859e32dc2dbb915060200160405180910390a25b5050505050565b6002818154811061057e575f80fd5b5f91825260209091206005909102018054600182015460028301546003840180546001600160a01b039094169550919360ff909116929091906105c090610799565b80601f01602080910402602001604051908101604052809291908181526020018280546105ec90610799565b80156106375780601f1061060e57610100808354040283529160200191610637565b820191905f5260205f20905b81548152906001019060200180831161061a57829003601f168201915b5050505050908060040154905085565b5f60208284031215610657575f80fd5b81356001600160a01b038116811461066d575f80fd5b9392505050565b5f60208284031215610684575f80fd5b5035919050565b60018060a01b03861681525f6020868184015260ff8616604084015260a0606084015284518060a08501525f5b818110156106d45786810183015185820160c0015282016106b8565b505f60c0828601015260c0601f19601f830116850101925050508260808301529695505050505050565b5f805f8060608587031215610711575f80fd5b84359350602085013560ff81168114610728575f80fd5b9250604085013567ffffffffffffffff80821115610744575f80fd5b818701915087601f830112610757575f80fd5b813581811115610765575f80fd5b886020828501011115610776575f80fd5b95989497505060200194505050565b634e487b7160e01b5f52603260045260245ffd5b600181811c908216806107ad57607f821691505b6020821081036107cb57634e487b7160e01b5f52602260045260245ffd5b50919050565b634e487b7160e01b5f52604160045260245ffd5b601f82111561082e575f81815260208120601f850160051c8101602086101561080b5750805b601f850160051c820191505b8181101561082a57828155600101610817565b5050505b505050565b815167ffffffffffffffff81111561084d5761084d6107d1565b6108618161085b8454610799565b846107e5565b602080601f831160018114610894575f841561087d5750858301515b5f19600386901b1c1916600185901b17855561082a565b5f85815260208120601f198616915b828110156108c2578886015182559484019460019091019084016108a3565b50858210156108df57878501515f19600388901b60f8161c191681555b5050505050600190811b01905550565b5f6001820161090c57634e487b7160e01b5f52601160045260245ffd5b5060010190565b60ff8516815260606020820152826060820152828460808301375f608084830101525f6080601f19601f860116830101905082604083015295945050505050565b634e487b7160e01b5f52601260045260245ffd5b5f8261097657610976610954565b500490565b5f8261098957610989610954565b50069056fea26469706673582212203166c78c1992577d30a7fd7afd6e7e51f6dc6d6be322dbb5cb180eb5daa6ec6f64736f6c63430008140033",
  "linkReferences": {},
  "deployedLinkReferences": {},
  "immutableReferences": {},
  "inputSourceName": "project/contracts/CoffeeReviews.sol",
  "buildInfoId": "solc-0_8_20-e36883ecf3ed8d796c7aad466f991ccfa349f79d"
}